{
  "transactions": [
    {
      "hash": "0xa07b778995267c8672ac9ecbe5689547ea19fa8d1c8793a55f3afa5841f717b0",
      "transactionType": "CALL",
      "contractName": null,
      "contractAddress": "0x5370abf8009a99ab434f87d46b4718165fc7fa5b",
      "function": "setDefaults(uint256,uint256,uint256)",
      "arguments": [
        "323",
        "1",
        "5"
      ],
      "transaction": {
        "from": "0x76c0bc9b0322e971d5a98f8f64e103715462c0a9",
        "to": "0x5370abf8009a99ab434f87d46b4718165fc7fa5b",
        "gas": "0xe69f",
        "value": "0x0",
        "input": "0xbc2cfb39000000000000000000000000000000000000000000000000000000000000014300000000000000000000000000000000000000000000000000000000000000010000000000000000000000000000000000000000000000000000000000000005",
        "nonce": "0x4d",
        "chainId": "0x61"
      },
      "additionalContracts": [],
      "isFixedGasLimit": false
    }
  ],
  "receipts": [
    {
      "status": "0x1",
      "cumulativeGasUsed": "0x39eef",
      "logs": [
        {
          "address": "0x5370abf8009a99ab434f87d46b4718165fc7fa5b",
          "topics": [
            "0xa495b83683a75c69e3f5ca67526231f34ccefabd808351c1d3c2345a2e197c4a"
          ],
          "data": "0x000000000000000000000000000000000000000000000000000000000000014300000000000000000000000000000000000000000000000000000000000000010000000000000000000000000000000000000000000000000000000000000005",
          "blockHash": "0x9115b3195a7f3a523436041b111511576315f9e28422523ef1736bc9d107afee",
          "blockNumber": "0x4b933bb",
          "blockTimestamp": "0x69441f6e",
          "transactionHash": "0xa07b778995267c8672ac9ecbe5689547ea19fa8d1c8793a55f3afa5841f717b0",
          "transactionIndex": "0x4",
          "logIndex": "0x7",
          "removed": false
        }
      ],
      "logsBloom": "0x00000000000000000000000000000000080000000000000000000000000000000000000000000000008000000000000000000000000000000000000000000000000000000000000000000002000000000000000000000000000000000000000000000000000000000000000000000000000000000000000000000000000000000000000000000000000000000000000000000000000000001000000000000000000000000000000000000000000000000000000000004000000000000000000000000000000000000000000000000000000000000000000000000000000000000000000000000000000000000000000000400000000000000000000000000000",
      "type": "0x2",
      "transactionHash": "0xa07b778995267c8672ac9ecbe5689547ea19fa8d1c8793a55f3afa5841f717b0",
      "transactionIndex": "0x4",
      "blockHash": "0x9115b3195a7f3a523436041b111511576315f9e28422523ef1736bc9d107afee",
      "blockNumber": "0x4b933bb",
      "gasUsed": "0x9db1",
      "effectiveGasPrice": "0x5f5e100",
      "from": "0x76c0bc9b0322e971d5a98f8f64e103715462c0a9",
      "to": "0x5370abf8009a99ab434f87d46b4718165fc7fa5b",
      "contractAddress": null
    }
  ],
  "libraries": [],
  "pending": [],
  "returns": {},
  "timestamp": 1766072176954,
  "chain": 97,
  "commit": "8970202"
}