{
  "transactions": [
    {
      "hash": "0x60d9edea2cebf0e77e681ce80640d6e22820ead7ff7b6f5f981c8ef5e3685c61",
      "transactionType": "CALL",
      "contractName": null,
      "contractAddress": "0xd0b591751e6aa314192810471461bde963796306",
      "function": "grantRole(bytes32,address)",
      "arguments": [
        "0x9f2df0fed2c77648de5860a4cc508cd0818c85b8b8a1ab4ceeef8d981c8956a6",
        "0x3fDDF486b3f539F24aBD845674F18AE33Af668f8"
      ],
      "transaction": {
        "from": "0xbf797273b60545882711f003094c065351a9cd7b",
        "to": "0xd0b591751e6aa314192810471461bde963796306",
        "gas": "0x118cf",
        "value": "0x0",
        "input": "0x2f2ff15d9f2df0fed2c77648de5860a4cc508cd0818c85b8b8a1ab4ceeef8d981c8956a60000000000000000000000003fddf486b3f539f24abd845674f18ae33af668f8",
        "nonce": "0x3",
        "chainId": "0x61"
      },
      "additionalContracts": [],
      "isFixedGasLimit": false
    },
    {
      "hash": "0xa8735f669a7e477616d59e655048de8969c5699332cf06a2d96c31b050c51d9f",
      "transactionType": "CALL",
      "contractName": null,
      "contractAddress": "0xd0b591751e6aa314192810471461bde963796306",
      "function": "grantRole(bytes32,address)",
      "arguments": [
        "0x90601cb45097851a246a5f8a72fbb27b3ef393b2a92d8fdd7aa24b1be6b2ed3b",
        "0x96c7ecDa74057c62D16BfeD1822e6EF6ed12EC66"
      ],
      "transaction": {
        "from": "0xbf797273b60545882711f003094c065351a9cd7b",
        "to": "0xd0b591751e6aa314192810471461bde963796306",
        "gas": "0x118cf",
        "value": "0x0",
        "input": "0x2f2ff15d90601cb45097851a246a5f8a72fbb27b3ef393b2a92d8fdd7aa24b1be6b2ed3b00000000000000000000000096c7ecda74057c62d16bfed1822e6ef6ed12ec66",
        "nonce": "0x4",
        "chainId": "0x61"
      },
      "additionalContracts": [],
      "isFixedGasLimit": false
    }
  ],
  "receipts": [
    {
      "status": "0x1",
      "cumulativeGasUsed": "0xcb4e",
      "logs": [
        {
          "address": "0xd0b591751e6aa314192810471461bde963796306",
          "topics": [
            "0x2f8788117e7eff1d82e926ec794901d17c78024a50270940304540a733656f0d",
            "0x9f2df0fed2c77648de5860a4cc508cd0818c85b8b8a1ab4ceeef8d981c8956a6",
            "0x0000000000000000000000003fddf486b3f539f24abd845674f18ae33af668f8",
            "0x000000000000000000000000bf797273b60545882711f003094c065351a9cd7b"
          ],
          "data": "0x",
          "blockHash": "0xe22530d5ecb099bcba198925a224fc392a7b52e187ff41d87f300af8c1d234d3",
          "blockNumber": "0x442ddff",
          "blockTimestamp": "0x690d15eb",
          "transactionHash": "0x60d9edea2cebf0e77e681ce80640d6e22820ead7ff7b6f5f981c8ef5e3685c61",
          "transactionIndex": "0x0",
          "logIndex": "0x0",
          "removed": false
        }
      ],
      "logsBloom": "0x00000004000000000000000400000000000000000000000000000000000000000000000020000000000000000000004000000020000000000000000000000000000000000000000000000000000000000000000000000000000000000000000000000000000000000000000000000000000000000000000000800000001000000000000000000000000000000000000000000000000000000000000000000000000000000000000000200000000000000000000000000000001000000000000000000000000000000000000000000000001000000000000100000000000000000010080000000000000000000000000000000001002000000000000000000000",
      "type": "0x0",
      "transactionHash": "0x60d9edea2cebf0e77e681ce80640d6e22820ead7ff7b6f5f981c8ef5e3685c61",
      "transactionIndex": "0x0",
      "blockHash": "0xe22530d5ecb099bcba198925a224fc392a7b52e187ff41d87f300af8c1d234d3",
      "blockNumber": "0x442ddff",
      "gasUsed": "0xcb4e",
      "effectiveGasPrice": "0x5f5e100",
      "from": "0xbf797273b60545882711f003094c065351a9cd7b",
      "to": "0xd0b591751e6aa314192810471461bde963796306",
      "contractAddress": null
    },
    {
      "status": "0x1",
      "cumulativeGasUsed": "0x20406",
      "logs": [
        {
          "address": "0xd0b591751e6aa314192810471461bde963796306",
          "topics": [
            "0x2f8788117e7eff1d82e926ec794901d17c78024a50270940304540a733656f0d",
            "0x90601cb45097851a246a5f8a72fbb27b3ef393b2a92d8fdd7aa24b1be6b2ed3b",
            "0x00000000000000000000000096c7ecda74057c62d16bfed1822e6ef6ed12ec66",
            "0x000000000000000000000000bf797273b60545882711f003094c065351a9cd7b"
          ],
          "data": "0x",
          "blockHash": "0xe22530d5ecb099bcba198925a224fc392a7b52e187ff41d87f300af8c1d234d3",
          "blockNumber": "0x442ddff",
          "blockTimestamp": "0x690d15eb",
          "transactionHash": "0xa8735f669a7e477616d59e655048de8969c5699332cf06a2d96c31b050c51d9f",
          "transactionIndex": "0x2",
          "logIndex": "0x1",
          "removed": false
        }
      ],
      "logsBloom": "0x00000004000000000000000000000000000000000001000000000000000000000000000020000000000000000000000000000020000000000000000000000000000000000000000000000000000000000000000000100000000000020000000100000000000000000001000000000000000000000000000000000000000000000000000000000000000000000000000000000000000000000000000000000000000002000000000000000000000000000000000000000000001000000000000000000000000000000000000000000000000000000000000100000000000000000010080000000000000000000000000000000001002000000000000000000000",
      "type": "0x0",
      "transactionHash": "0xa8735f669a7e477616d59e655048de8969c5699332cf06a2d96c31b050c51d9f",
      "transactionIndex": "0x2",
      "blockHash": "0xe22530d5ecb099bcba198925a224fc392a7b52e187ff41d87f300af8c1d234d3",
      "blockNumber": "0x442ddff",
      "gasUsed": "0xcb4e",
      "effectiveGasPrice": "0x5f5e100",
      "from": "0xbf797273b60545882711f003094c065351a9cd7b",
      "to": "0xd0b591751e6aa314192810471461bde963796306",
      "contractAddress": null
    }
  ],
  "libraries": [],
  "pending": [],
  "returns": {},
  "timestamp": 1762465260999,
  "chain": 97,
  "commit": "a022aca"
}