{
  "transactions": [
    {
      "hash": "0x2a06d5fddd61b0fa003390f4171fcbc8a1f1fc126e086128f16419b01a3bef6e",
      "transactionType": "CALL",
      "contractName": null,
      "contractAddress": "0x7a86331410e1d0de66ece866053f4ce5d80ebce8",
      "function": "approve(address,uint256)",
      "arguments": [
        "0x7bec7325D7Eda388cC34814e0aF689C3Fb7DC483",
        "100000000000000000000"
      ],
      "transaction": {
        "from": "0xf362fe668d93c43be16716a73702333795fbcea6",
        "to": "0x7a86331410e1d0de66ece866053f4ce5d80ebce8",
        "gas": "0x1069d",
        "value": "0x0",
        "input": "0x095ea7b30000000000000000000000007bec7325d7eda388cc34814e0af689c3fb7dc4830000000000000000000000000000000000000000000000056bc75e2d63100000",
        "nonce": "0x8",
        "chainId": "0x61"
      },
      "additionalContracts": [],
      "isFixedGasLimit": false
    },
    {
      "hash": "0x1d33874ad96c50ca5ea8eb2265846ad9f9a1471a682beab502173734dc6380aa",
      "transactionType": "CALL",
      "contractName": null,
      "contractAddress": "0x7bec7325d7eda388cc34814e0af689c3fb7dc483",
      "function": "stake(uint256)",
      "arguments": [
        "100000000000000000000"
      ],
      "transaction": {
        "from": "0xf362fe668d93c43be16716a73702333795fbcea6",
        "to": "0x7bec7325d7eda388cc34814e0af689c3fb7dc483",
        "gas": "0x18d74",
        "value": "0x0",
        "input": "0xa694fc3a0000000000000000000000000000000000000000000000056bc75e2d63100000",
        "nonce": "0x9",
        "chainId": "0x61"
      },
      "additionalContracts": [],
      "isFixedGasLimit": false
    }
  ],
  "receipts": [
    {
      "status": "0x1",
      "cumulativeGasUsed": "0x13646",
      "logs": [
        {
          "address": "0x7a86331410e1d0de66ece866053f4ce5d80ebce8",
          "topics": [
            "0x8c5be1e5ebec7d5bd14f71427d1e84f3dd0314c0f7b2291e5b200ac8c7c3b925",
            "0x000000000000000000000000f362fe668d93c43be16716a73702333795fbcea6",
            "0x0000000000000000000000007bec7325d7eda388cc34814e0af689c3fb7dc483"
          ],
          "data": "0x0000000000000000000000000000000000000000000000056bc75e2d63100000",
          "blockHash": "0x705cff116adae6a31e0b306a04fe4af49d6e9369c4b08ca77679d3b4d0dc5fb8",
          "blockNumber": "0x475cfb0",
          "blockTimestamp": "0x6925c194",
          "transactionHash": "0x2a06d5fddd61b0fa003390f4171fcbc8a1f1fc126e086128f16419b01a3bef6e",
          "transactionIndex": "0x1",
          "logIndex": "0x0",
          "removed": false
        }
      ],
      "logsBloom": "0x00000000800000000000000000000000000000000000000000001000000000000000000000000000000000000000000000000000000000000000000000200000000000000000200080000000000000000000000000000000000000000000000000000000000000000000000000000000000000000000000000000000000000000000000010000000000000000800000000000000000000000000000000000000020000000000000000000000000000000000000000000000000000000000000000000000000000000000000000000000000000000000000000000000000000000010000000000000080000000000000000000020004000000000000000000000",
      "type": "0x0",
      "transactionHash": "0x2a06d5fddd61b0fa003390f4171fcbc8a1f1fc126e086128f16419b01a3bef6e",
      "transactionIndex": "0x1",
      "blockHash": "0x705cff116adae6a31e0b306a04fe4af49d6e9369c4b08ca77679d3b4d0dc5fb8",
      "blockNumber": "0x475cfb0",
      "gasUsed": "0xb391",
      "effectiveGasPrice": "0x5f5e100",
      "from": "0xf362fe668d93c43be16716a73702333795fbcea6",
      "to": "0x7a86331410e1d0de66ece866053f4ce5d80ebce8",
      "contractAddress": null
    },
    {
      "status": "0x1",
      "cumulativeGasUsed": "0x11fc0",
      "logs": [
        {
          "address": "0x7bec7325d7eda388cc34814e0af689c3fb7dc483",
          "topics": [
            "0x9e71bc8eea02a63969f509818f2dafb9254532904319f9dbda79b67bd34a5f3d",
            "0x000000000000000000000000f362fe668d93c43be16716a73702333795fbcea6"
          ],
          "data": "0x0000000000000000000000000000000000000000000000056bc75e2d63100000",
          "blockHash": "0xa1a66de17eb7a478a6dff49f95f488b627650e180adbf40f9efc41f8709258a7",
          "blockNumber": "0x475cfb1",
          "blockTimestamp": "0x6925c194",
          "transactionHash": "0x1d33874ad96c50ca5ea8eb2265846ad9f9a1471a682beab502173734dc6380aa",
          "transactionIndex": "0x0",
          "logIndex": "0x0",
          "removed": false
        },
        {
          "address": "0x7a86331410e1d0de66ece866053f4ce5d80ebce8",
          "topics": [
            "0xddf252ad1be2c89b69c2b068fc378daa952ba7f163c4a11628f55a4df523b3ef",
            "0x000000000000000000000000f362fe668d93c43be16716a73702333795fbcea6",
            "0x0000000000000000000000007bec7325d7eda388cc34814e0af689c3fb7dc483"
          ],
          "data": "0x0000000000000000000000000000000000000000000000056bc75e2d63100000",
          "blockHash": "0xa1a66de17eb7a478a6dff49f95f488b627650e180adbf40f9efc41f8709258a7",
          "blockNumber": "0x475cfb1",
          "blockTimestamp": "0x6925c194",
          "transactionHash": "0x1d33874ad96c50ca5ea8eb2265846ad9f9a1471a682beab502173734dc6380aa",
          "transactionIndex": "0x0",
          "logIndex": "0x1",
          "removed": false
        }
      ],
      "logsBloom": "0x00000000800000000000000000000000000000000800000000001000000000000000000000000000000000000000000001000000000000000000000000000000000000000000200080000008000000000000000000000000000000000000000040000000000000000008000000000000000000000000000000000010000000000004000010000000000000000800000000000000000000000000000000000000000000000000000000000000000000020000000000000000000000000000000000000002000000000000000000000000000000000000000000000000000000000000000000000000080000000000000000000020004000000000000000000000",
      "type": "0x0",
      "transactionHash": "0x1d33874ad96c50ca5ea8eb2265846ad9f9a1471a682beab502173734dc6380aa",
      "transactionIndex": "0x0",
      "blockHash": "0xa1a66de17eb7a478a6dff49f95f488b627650e180adbf40f9efc41f8709258a7",
      "blockNumber": "0x475cfb1",
      "gasUsed": "0x11fc0",
      "effectiveGasPrice": "0x5f5e100",
      "from": "0xf362fe668d93c43be16716a73702333795fbcea6",
      "to": "0x7bec7325d7eda388cc34814e0af689c3fb7dc483",
      "contractAddress": null
    }
  ],
  "libraries": [],
  "pending": [],
  "returns": {},
  "timestamp": 1764082069878,
  "chain": 97,
  "commit": "0a76e52"
}